:1000000020080020590100004902000049020000B8
:1000100000000000000000000000000000000000E0
:100020000000000000000000000000004902000085
:10003000000000000000000049020000490200002A
:100040004902000049020000490200004902000084
:100050004902000049020000490200004902000074
:100060004902000049020000490200004902000064
:100070004902000049020000490200004902000054
:100080004902000049020000490200004902000044
:100090004902000049020000490200004902000034
:1000A0004902000049020000490200004902000024
:1000B000000000000448054B10B5834203D0044BF8
:1000C000002B00D0984710BDC8060000C8060000ED
:1000D0000000000006480749091A8B10C90FC9180B
:1000E00010B5491003D0044B002B00D0984710BD29
:1000F000C8060000C80600000000000010B5074C4C
:100100002378002B09D1FFF7D5FF054B002B02D038
:10011000044800E000BF0123237010BD0000002050
:1001200000000000C8060000054B10B5002B03D0EE
:100130000449054800E000BFFFF7CCFF10BDC046F2
:100140000000000004000020C806000080B500AFD9
:1001500000F07EFAFEE7000080B582B000AF2F4BC2
:100160007B602F4B3B607A683B689A420CD007E07B
:100170007A68131D7B603B68191D396012681A602C
:100180003A68284B9A42F3D3274B3B6004E03B6824
:100190001A1D3A6000221A603A68244B9A42F6D33C
:1001A000234B7B607A68234BFF218A439A60224A63
:1001B00090235B000221D150204AD37803218B4346
:1001C000191C02230B43D3701C4AD3780C218B4398
:1001D000191C08230B43D370194A937B30218B439E
:1001E000191C20230B439373154A937B0C218B43DB
:1001F000191C08230B439373114A937B03218B43F0
:10020000191C02230B4393730E4A536880210B433E
:10021000536000F025FAFFF799FFFEE7C8060000DB
:100220000000002000000020000000201C00002032
:100230000000000000ED00E00070004100500041AF
:10024000004800410040004180B500AFFEE780B5A6
:1002500000AF00F01DF8C046BD4680BD80B500AFC0
:10026000FFF7F5FFC046BD4680BD80B582B000AF48
:10027000786039607B685A683B685B001E210B40E0
:100280001A437B685A60C046BD4602B080BD00007C
:1002900080B500AF094B00211800FFF7E6FF00F022
:1002A0009FF800F061F9082000F022F800F0C0F992
:1002B000F72000F01DF8C046BD4680BD004000415B
:1002C00080B582B000AF786039607B683A685A6068
:1002D000C046BD4602B080BD80B582B000AF786038
:1002E00039607B683A689A60C046BD4602B080BDFE
:1002F00080B582B000AF78607B68012213400DD0DA
:1003000080235B00074A19001000FFF7E5FF8323F5
:100310005B02044A19001000FFF7D2FFC046BD4639
:1003200002B080BD000C004080B582B000AF7860A4
:100330000A00FB1C1A707B681B7ADAB2FB1C1B7864
:1003400007210B40DBB21343DAB27B681A72C04656
:10035000BD4602B080BD80B582B000AF78600A00B3
:10036000FB1C1A707B685B7ADAB2FB1C1B780721D6
:100370000B40DBB21343DAB27B685A72C046BD460B
:1003800002B080BD80B582B000AF78600A00FB1C6F
:100390001A707B689B7ADAB2FB1C1B7807210B4032
:1003A000DBB21343DAB27B689A72C046BD4602B034
:1003B00080BD80B582B000AF78600A00FB1C1A7067
:1003C0007B68DB7ADAB2FB1C1B7807210B40DBB2BF
:1003D0001343DAB27B68DA72C046BD4602B080BD14
:1003E00080B500AF0B4B00211800FFF79DFF094BB4
:1003F00000211800FFF7AFFF064B00211800FFF7A0
:10040000C1FF044B00211800FFF7D3FFC046BD46D3
:1004100080BDC0460004004080B582B000AF786067
:100420007B689B69022293431A007B689A61C046ED
:10043000BD4602B080BD80B582B000AF78607B68F9
:100440009B6980221A437B689A61C046BD4602B010
:1004500080BD80B584B000AF78607B689B69FB602D
:10046000FB681B0C7F221340FB60FB681800BD4635
:1004700004B080BD80B582B000AF786039607B6821
:100480003A689A61C046BD4602B080BD80B584B06E
:1004900000AF78600F203B187A68127F1A703B1803
:1004A0003A1812781F210A401A703B181B7818005E
:1004B000BD4604B080BD80B582B000AF78600A0050
:1004C000FB1C1A707B68FA1C12781A77C046BD466E
:1004D00002B080BD80B582B000AF78607B681B6AD7
:1004E00080221A437B681A62C046BD4602B080BDB6
:1004F00080B584B000AF78607B681B6AFB60FB68E6
:100500001B0C1B051B0DFB60FB681800BD4604B0EF
:1005100080BD80B584B000AF78607B681B6AFB60EB
:10052000FB689B0FFB60FB681800BD4604B080BDF4
:1005300080B582B000AF786039607B683A681A6233
:10054000C046BD4602B080BD80B582B000AF7860C5
:100550007B68DB68DB08012213405A1E9341DBB243
:100560001800BD4602B080BD80B582B000AF2D4BF3
:100570007B607B681800FFF7BBFF0200BB1C1A8082
:100580007B681800FFF7C5FF03009A07BB1C1B8898
:100590001B0425490B401343244A1A437B6811006E
:1005A0001800FFF7C5FF7B681800FFF752FF020035
:1005B000BB1C1A80BB1C1B881A04FE23DB031340E0
:1005C00002221A437B6811001800FFF753FF7B6873
:1005D0001800FFF75BFF03001A00BB1C1A80BB1C4E
:1005E0001B88DBB21F221340DAB27B6811001800AF
:1005F000FFF761FF7B681800FFF71DFFC0467B68AF
:100600001800FFF7A1FF03001A0001235340DBB2DB
:10061000002BF4D17B681800FFF75CFFC046BD4695
:1006200002B080BD000800400000FF0F0203000080
:1006300080B582B000AF054B7B607B681800FFF788
:10064000EBFEC046BD4602B080BDC046000800407B
:1006500080B500AFFFF702FEC046BD4680BD00007A
:1006600070B500260C4C0D4D641BA410A64209D198
:10067000002600F019F80A4C0A4D641BA410A6428B
:1006800005D170BDB300EB5898470136EEE7B300D3
:10069000EB5898470136F2E7B4060000B4060000B4
:1006A000B8060000B4060000F8B5C046F8BC08BCA7
:1006B0009E46704729010000F8B5C046F8BC08BC4A
:0806C0009E467047FD0000009A
:04000003000001599F
:00000001FF
